:020000040800F2
:100000000000082469300108BD300108BD30010836
:10001000BD300108BD300108BD30010800000000FE
:10002000000000000000000000000000BD300108DA
:10003000BD30010800000000BD300108AB0501081B
:10004000BD300108BD300108BD300108BD300108D8
:10005000BD300108BD300108DD060108E3060108D6
:10006000E9060108EF060108F506010859510008E4
:1000700065510008BD300108715100087D5100082C
:10008000BD300108BD300108BD300108BD30010898
:10009000BD300108BD300108BD300108FB06010874
:1000A000BD300108D9F20008BD300108EDF20008AA
:1000B000F1F2000805F3000819F3000829620008AE
:1000C00035620008416200084D620008BD30010839
:1000D000BD30010889110108A1110108BD110108F5
:1000E00023070108BD30010800000000A1F300084B
:1000F00069F30008B5F300088DF30008BD3001086E
:10010000BD300108BD3001082DF30008BD300108E5
:10011000D9110108F111010841F3000855F3000855
:10012000BD300108BD300108BD300108BD300108F7
:10013000BD300108BD300108BD300108BD300108E7
:1001400000000000000000000000000000000000AF
:10015000BD300108BD300108BD3001080912010899
:100160005962000865620008BD300108BD30010811
:10017000BD300108BD300108BD300108BD300108A7
:10018000BD300108BD3001083912010851120108C3
:10019000BD300108BD300108BD300108BD30010887
:1001A000BD300108BD300108BD300108BD30010877
:1001B000994C0008BD300108BD300108716200088B
:1001C0008D620008BD300108BD300108BD30010856
:1001D000911E0108851E0108BD300108BD300108CF
:1001E000BD300108BD300108BD300108BD30010837
:1001F000BD300108BD300108BD300108BD30010827
:10020000BD300108BD300108BD300108BD30010816
:10021000C9F30008DDF30008F1F30008BD30010860
:10022000BD300108BD300108BD30010800000000EC
:10023000BD300108BD30010800000000BD300108DC
:10024000BD300108BD300108BD300108BD300108D6
:10025000BD300108BD300108BD300108BD300108C6
:10026000BD300108BD300108BD300108BD300108B6
:10027000BD300108BD300108211201080000000056
:10028000BD300108BD300108BD300108000000008C
:0802900000000000BD30010870
:1002A000034613F8012B002AFBD1181A01387047B6
:1002B00001F0FF01102A2BDB10F0070F08D010F817
:1002C000013B013A8B422DD010F0070F42B3F6D11B
:1002D000F0B441EA012141EA014122F007047FF034
:1002E00000070023F0E80256083C85EA010586EA8B
:1002F000010685FA47F5A3FA87F586FA47F6A5FAC7
:1003000087F68EB9EED1F0BC01F0FF0102F00702D2
:1003100032B110F8013B013A83EA010313B1F8D17D
:100320000020704701387047002D06BF354603385E
:10033000073815F0010F07D1013015F4807F02BF97
:10034000013015F4C03F0130F0BC0138704700BFE8
:1003500010B5054C237833B9044B13B10448AFF3FF
:1003600000800123237010BD44030024000000001E
:10037000F45E010808B5034B1BB103490348AFF312
:10038000008008BD0000000048030024F45E01085E
:10039000002070477047F8B505460C468F180026B8
:1003A000BC4201D13046F8BD2B68284614F8011B29
:1003B0001B6898470644F3E738B500F10805D0F804
:1003C000B4300446284698474FF6FD7203469042E3
:1003D00013D8B4F8BA202846B4F8B81006F0BAFA20
:1003E00094F89030032B08D8DFE803F002090F15CA
:1003F000B4F8B8301844A4F8B800012038BDB4F8F7
:10040000BA301844A4F8BA00F7E7B4F8B8301B1AA9
:10041000A4F8B830F1E7B4F8BA301B1AA4F8BA302F
:10042000EBE70000DFED087AF2EE080A30EE670A2B
:1004300008B5C0EE200AB0EE000A13F09BFEDFED17
:10044000037A20EE270A08BD00008A420000DC4340
:10045000B7EE007A4FF07C5310B5C7EE007A80ED0E
:10046000030A436000239FED090A0446436180EDBF
:10047000020AC0ED047A02F0B5FD002384ED060AFD
:10048000237040F20113A38410BD00BF0000C842D6
:1004900010B5044680ED020A02F0A4FD84ED060AC0
:1004A00010BD00002DE9F04FDFF8D8830024DFF8FD
:1004B000D8A30D46D34E2DED0A8B83B0019205F0E3
:1004C0008DF8C8F80800019B9C421FD105F086F802
:1004D000D8F8082098ED017A831A98F8002007EEE2
:1004E000903AF8EE677A67EE877A002A00F0658224
:1004F0000022C8ED057AC8ED037AC8ED047A88F8C1
:10050000002003B0BDEC0A8BBDE8F08F9AF8002004
:10051000DFEDBD9A4AB10021BC4802F0FBF9BC4AAC
:10052000C2ED059A00228AF80020BA4AB74811782D
:1005300002F0C6FAB648B0EE409A02F05FFCB64A46
:10054000F2EE087AB54F92ED008AB54AB8EEC88A45
:1005500086ED000A92ED007A3A68A7EE278A9FEDB1
:10056000B17A88FE298A88FE478A32B9AE4A92ED6E
:10057000007A20EE070AA0EE278ADFF810B3B0EE6B
:10058000480AFFF74FFF9FEDA97ADBED007AB0EE46
:1005900040AA67EE877A9FEDA67AC7EE878A38EE83
:1005A000880AFFF73FFFF0EE40AA38EE680AF6EE41
:1005B000008AFFF737FF9F48B0EE408AB0EE4A0A44
:1005C000FFF766FF2AEE280A9B48FFF761FFB0EEAF
:1005D0006A0A9A48F7EE00AAFFF75AFFB0EE480AF7
:1005E0009748FFF755FF974AD2ED007A39680329FB
:1005F00009D1D2ED007A96ED007AE7EE287AC7FEAF
:10060000A97AC7FEEA7AB5EE007AF4EEC77AF1EE7F
:1006100010FA65D4F4EEE87AF1EE10FA62D4B6EE90
:10062000087AF4EEC77AF1EE10FA4CBF02200420EB
:10063000834AF0EE00CA8149B3EE04BADFF8F491C0
:100640001070087089F800007B4802F0D7FB7E48E4
:10065000B0EE40CADFED7DBAD0ED007A484667EED5
:10066000807A67EE8A7AA7EEACAA8AFE0BAA8AFE87
:100670006B0AFFF70DFF484602F0C0FB6F49B0EE72
:10068000408A084602F0BAFB6D4AB0EE40AA104616
:1006900002F0B4FB6E4AF0EE6A6A6E4992ED007A9F
:1006A000DBED007A6C4AAAEE278AE7EEAC6A92ED9F
:1006B000006A0968A0EE278AF0EE6A7AA7EE0C8A33
:1006C00088EE267AF3EE0E6AE6EE267A27EE278A81
:1006D000032929D8DFE811F008008500E600F800BA
:1006E0000020A5E70120A3E7F8EE087AB4EEE78A38
:1006F000F1EE10FA00F11F81F0EE087AB4EEE78A0D
:10070000F1EE10FA00F31A81F3EE0B7AF2EE026AC0
:10071000B0EE677A68EE266AA8EE087AE8EE267AE6
:1007200028EE077A87EE278A4C4ADFED4D6AD2ED34
:10073000007A4C4A27EEA77ADFF854B1F0EE4B7AF4
:10074000E7EE267A92ED007AC7FE8B7AC7FEEB7A47
:1007500077EEC77ADFED446AA7EEA67ADFED436A4B
:1007600082ED007A424AD2ED007A3A6867EE897AE1
:10077000012ADBF8002067EEA67A05BF9FED3D6AEF
:10078000D6ED006ADFED206A66EE866A77EE877A3C
:1007900077EEA67AC7FE8B7A87FEEB0A002A00F076
:1007A000D080013A032A00F2DE80DFF8E890484664
:1007B00002F09EFC304ADFED317A484692ED000AA5
:1007C00020EE270A02F0FCFCB0EE480A484602F090
:1007D00031FCDBF80020032A40F0E08099ED0E8A1E
:1007E000C1E0B0EE6A7ADFED267AD2ED006AA6EEBD
:1007F000E77AF1EE477AC8FE277AC7FEC77A87EE16
:10080000878A91E7B004002400000000200500243E
:10081000F804002471040024380400243004002467
:100820007C0400240000FE425404002400004842DE
:100830000000C8420C06002494050024E4050024AE
:10084000BC0500246C0400245004002400A08C4645
:1008500068040024280400245804002460040024B0
:1008600000788C46300000240AD7233C00007A45EB
:10087000640400240000FA445C0400246666663FB9
:100880009A99593F64060024700400244C04002403
:100890002C040024B4040024020000001000000016
:1008A0003CEEC88AB4EEEA8AF1EE10FAF8DCFFEE0C
:1008B000007AB8EE007AB4EEE78AF1EE10FA7FF52E
:1008C00033AF37EE488AF6E7F3EE000AD2ED006A5E
:1008D000F2EE0C7AB0EE607AA6EEE77ABDEEC77A59
:1008E00017EE103A012B20DDB0EE607AD2ED006AEF
:1008F000A6EEE77ABDEEC77A17EE103A102B17DC9A
:1009000092ED007AE7EE670AFDEEE00AF8EEE00A03
:10091000B0EE000A13F02EFCB0EE40AA28EE000A5A
:1009200013F0FEFE80EE0A8AFEE65FED250AEDE793
:100930005FED260AEAE7BFEE008AF5E6B7EE008A29
:10094000F2E62E4A9FED2E7AD2ED007A2D4867EE20
:10095000877A80ED020AB0EE480AC0ED017A02F013
:1009600039F9B0EE408A3A68022A23D1D6ED007AEE
:10097000E7EEA88AC8FEA98AC8FEEA8A28EE098A94
:100980002A6802EB840228EE288A82ED008A6A68CF
:1009900002EB8402013482ED008A94E5042A06D039
:1009A000022A14BF99ED0C8A99ED0D8ADBE799EDC7
:1009B000108AD8E7F7EE008AE0E798ED047AD8EDE0
:1009C000066AF4EEC77A98ED037A98ED056AF1EEBF
:1009D00010FAF4EEC77AB7EE007AC8BFC8ED047A11
:1009E000F1EE10FA37EE667A48BFC8ED037A27EECB
:1009F000067AA7EEA67A88ED057A82E55C040024E3
:100A00006666663F500500240A4B1A78012A0DD00D
:100A1000022A0DD00AB901221A700023064A136077
:100A2000064A13600122064B1A7070470222F3E750
:100A30000022F1E79D040024A8040024A40400245B
:100A400000010024034B1B78022B0CBF07200D2054
:100A5000704700BF9D040024DFED097A642120EE79
:100A6000270AFDEEC07A17EE903A93FBF1F201FBF4
:100A700012330449002BB8BF5B4212F0C7BE00BF5F
:100A80000000C8424C630108DFED097A642120EEC2
:100A9000270AFDEEC07A17EE903A93FBF1F201FBC4
:100AA00012330449002BB8BF5B4212F0AFBE00BF47
:100AB0000000C84254630108F7B517461E4684B2C9
:100AC0000D4659B114230021144822460093802377
:100AD00005F06FFC0021114806F068F804F10802E7
:100AE0003B4602210D4892B205F098FF31460B4873
:100AF00005F0E0FF04F11202C0F17E01334692B22C
:100B0000064889B205F08AFF35B10121034803B0D8
:100B1000BDE8F04006F04AB803B0F0BDD00B0024A9
:100B20002DE9F043002589B0DFF8DC915C4FDFF858
:100B3000DC81D9F800402C440C2C5CDC14266E437C
:100B40000C2C4AD8DFE804F007252C2E6F71808228
:100B500084869EA0A200534B0DF1200C0FCB0CE914
:100B60000F00514BD3ED007AB0EE677ABEEECF7A2C
:100B700017EE103A5A4203F0030302F0030258BF83
:100B800053420CEB830353F8101C684612F0BEFE70
:100B900023E0464B93ED000A6846FFF75DFF1CE03B
:100BA000434BF7E7434BF3EE046A9FED436AD3ED03
:100BB000007A424927EEA77AF0EE667AE7EE067AE7
:100BC0009FED3F7AC7FEA67AC7FEC77AFDEEE77AA9
:100BD00017EE902A684612F019FED8F80010013579
:100BE0006B4657F82420081B414241413046FFF72D
:100BF00063FF032D9DD1334B04A89FED337AD3EDD2
:100C0000057A324967EE877AFDEEE77A17EE902A89
:100C100012F0FCFD04AB3C2200212D4805F0FEFE45
:100C200009B0BDE8F0832B4BB4E72B4BB3EE0E7A43
:100C3000F7EE007A2949D3ED006AE6EE877AFDEEF9
:100C4000E77A17EE902AC5E7254BA3E7254BA1E7E6
:100C5000254B9FE7254B64219FED1B7A6846D3ED1A
:100C6000007A67EE877AFDEEE77A17EE903A93FB0B
:100C7000F1F201FB12331E49002BB8BF5B4212F0A8
:100C8000C5FDAAE71B4B85E71B4B83E71B4B1C4AA3
:100C900019781C4B002918BF1A46114675E700BF8A
:100CA000640000240C5F01086C0400246804002424
:100CB000640400246004002400788C466663010804
:100CC00000A08C46640600240000C8427863010836
:100CD000D00B00245C040024580400246B6301083A
:100CE00054040024500400244C0400247C040024F8
:100CF0006F63010878040024740400247104002444
:100D0000626301085D630108A4040024A8040024B0
:100D10002DE9F043304F85B03C7804B3053C012CFD
:100D20001CD92E4B0C2200212D4805F077FE3B7874
:100D3000013B032B4BD8DFE803F0020B0D0F294BCF
:100D40001A220021264805B0BDE8F04305F066BE32
:100D5000254BF5E7254BF3E7254BF1E70024DFF8BA
:100D6000AC90DFF8AC80D9F800502544062D2EDC7D
:100D70001426032D04FB06F62CDC0FD0002D18DB07
:100D80003B78052B26D11B4B1B491A681B4BAA42EB
:100D900018BF1946684612F0B9FD0AE0184B6422E4
:100DA000184968461B685343FF2293FBF2F212F086
:100DB0002DFD154B013458F8252019686B46481B4A
:100DC000414241413046FFF777FE032CCBD105B0BD
:100DD000BDE8F0830949DDE79C0400249163010824
:100DE000D00B0024A0630108B4630108C3630108A9
:100DF000D763010844000024816301088763010868
:100E0000340000247C630108A8040024A404002406
:100E1000480000241C4BF1EE006A1C4A93ED256A41
:100E2000D3ED267A77EEC67A86EEA77AF7EE007AC9
:100E3000F0EE675AE6EE475A82ED007A144A93EDD7
:100E4000287AC2ED005AD3ED275A124A37EE657A56
:100E500086EE876AB0EE677AA5EEC67A82ED006A02
:100E60000D4AD3ED295A82ED007A93ED2A7A0B4B85
:100E700037EE657A86EE876AE5EEC67A83ED006A1C
:100E8000074BC3ED007A7047600300244000002444
:100E9000880400243C00002484040024380000243A
:100EA0008004002410B5044613F03AFCFDEEC07A2D
:100EB0000C21204617EE902A92FBF1F301FB13223E
:100EC0000449013B51F822200349BDE8104012F0CB
:100ED0009DBC00BF00000024E66301082DE9F0433B
:100EE000424C91B0DFF8509104AD414FDFF84C8196
:100EF00094E80F00103485E80F0094E80F0008AD67
:100F000010AC85E80F00002504E90F00D9F8004077
:100F10002C440C2C22DC14266E430C2C10D8DFE859
:100F200004F00720272930323D43474B525A6200D4
:100F3000304B684693ED000AB8EEC00AFFF7B2FFE7
:100F4000D8F8001001356B4657F82420081B4142A1
:100F500041413046FFF7B0FD032DD7D111B0BDE8B8
:100F6000F083254B93ED000A6846FFF78DFDE7E718
:100F7000224BF7E7224B684693ED000AFFF76CFD22
:100F8000DEE7204BEEE7204B10AA1B6802EB830341
:100F900053F8301C684612F0B9FCD1E71B4B1A68B5
:100FA0001B4B53F82210F5E71A4B1A681A4BF8E757
:100FB0001A4B1A681A4BF4E71A4B68461A491A6812
:100FC00012F024FCBCE7194B10AA1B6802EB830348
:100FD00053F8201CDEE7164B1B6810AA02EB8303B4
:100FE00053F8101CD6E7134BF6E700BF1C5F01084F
:100FF00098000024380400244804002444040024F9
:10100000400400243C040024340400243004002460
:10101000F00000242C040024DC0000242804002418
:10102000CC00002424040024E863010820040024E8
:101030001C04002418040024A4040024A804002490
:1010400070B5154E154D347812F03EF92B68C01A64
:10105000312817D9012C124C01D0237893B11148B3
:1010600005F0F1F910490F4805F014FD337853B934
:10107000FFF734FF0B4805F0F0F912F025F90023D3
:101080002860237070BD012B02D1FFF749FDF1E705
:10109000FFF73EFEEEE700BF9D040024A0040024FD
:1010A00000010024D00B0024D26C0108064B002163
:1010B000064A186001231370054A11600021054A91
:1010C0001160054A13707047440000249C040024FA
:1010D00098040024940400240001002430B597B043
:1010E000D0F8B030044600F15C01542201A800930E
:1010F00012F014FCD4E9000103F014FD054604F0DD
:10110000B1FA18B15821284602F0DEFF226EAB6812
:101110009A427FD194ED197AD5ED037AB4EE677ACD
:10112000F1EE10FA76D194ED1A7AD5ED047AB4EE98
:10113000677AF1EE10FA6DD194ED1B7AD5ED057A50
:10114000B4EE677AF1EE10FA64D194ED1C7AD5ED25
:10115000067AB4EE677AF1EE10FA5BD1626FEB6952
:101160009A4257D1E26F6B6A9A4253D1D4F88020E9
:10117000AB6A9A424ED1D4F88420EB6A9A4249D1A4
:10118000D4F888202B6B9A4244D1D4F88C206B6B16
:101190009A423FD1D4F89020AB6B9A423AD194ED69
:1011A000257AD5ED0F7AB4EE677AF1EE10FA31D1E7
:1011B00094ED267AD5ED107AB4EE677AF1EE10FA56
:1011C00028D194ED277AD5ED117AB4EE677AF1EE55
:1011D00010FA1FD194ED287AD5ED127AB4EE677A21
:1011E000F1EE10FA16D194ED297AD5ED137AB4EE1A
:1011F000677AF1EE10FA0DD194ED2A7AD5ED147AD2
:10120000B4EE677AF1EE10FA04D1D4F8AC206B6D2D
:101210009A420BD06168206801F1580203F07FFC0C
:101220006B465822D4E9000103F076FC17B030BDBC
:10123000F0B5334B85B001253248009303F17D436F
:101240006946314CA3F580732427FF26ADF80C5076
:10125000019303F5813303F58073029303F054FC8B
:1012600000230021294A4FF086404FF0020C2361F1
:101270006361A361E3616264E26462656366A366BD
:10128000E36623672064A06420652766C4E902C77B
:10129000C4E90811C4E90A11C4E90C11C4E90E112A
:1012A000C4E9166CC4E91D11C4E91F11C4E9211178
:1012B000C4F89400C4F89C00C4F8A4002068C4F8E2
:1012C0009820C4F8A020C4F8A820C4F8AC606160DD
:1012D000C4E9231103F026FC03685A1EAA4206D96A
:1012E0002046C4F8B050FFF7F9FE05B0F0BD011D6F
:1012F000542204F15C00C4F8B03012F00FFBF4E7A4
:10130000050805091404002460030024000020449B
:1013100010B5264CE36D022B0FD02549254811F05E
:101320009FFD54222449881812F0F8FA0123204620
:10133000C4F8B030FFF7D2FEECE7226E1F4BD4F8B2
:10134000AC101A60626E1E4B1E481A60A26E1E4BD5
:101350001A60E26E1D4B1A60226F1D4B1A60626F9D
:101360001C4B1A60A26F1C4B1A60E26F1B4B1A6079
:10137000D4F880201A4B1A60D4F88420194B1A60D4
:10138000D4F88820184B1A60D4F88C20174B1A60B8
:10139000D4F89020164B1A60164B1960C9B205F0AC
:1013A000C3FFBDE81040FFF735BD00BF6003002458
:1013B000EB630108B41900246803002438040024F6
:1013C00048040024D00B00244404002440040024DA
:1013D0003C04002434040024300400242C040024A1
:1013E0002804002424040024200400241C040024D5
:1013F00018040024340000242DE9F0414FF4165164
:101400007B487C4C022501270026DFF858822DED11
:10141000048BADF5AB6D9FED789A0FF0D3FF0021F3
:10142000764804F0F9FB764805F06CFF744805F047
:1014300056F80021724805F06EFF032304A800222D
:10144000704900F065FD04A94FF4A9626E4812F0DE
:1014500065FA6C4800F03FFD89EE008A84ED000AD1
:10146000F0EE408A04F0C2F807EE900A674BDFED19
:10147000686A0321F8EE677A664A05201F70DA6011
:101480001A615A6167EE887AB7EE008A88EE277A89
:1014900083ED017A88EE897ADFED5F8AC6EE877A7E
:1014A00077EE886A87EEA67A83ED067A11F030FE31
:1014B000B0EE680A08230E220D2158480095CDE9A8
:1014C000015502F017FE06220721B0EE680A092333
:1014D00053480095DFED538ACDE9015502F00AFE2D
:1014E00094ED000A5048FEF7B3FF4F4BB0EE680A88
:1014F0001846C3F804801E70FEF7CAFF94ED000A78
:101500004A48FEF7A5FF494BB0EE680A1846C3F8F3
:1015100004801E70FEF7BCFF94ED000A4448FEF7FD
:1015200097FF434BB0EE680ADFED428A1846C3F8D6
:1015300004801E70FEF7ACFF94ED000A3E48FEF7F3
:1015400087FF3D4B94ED000A3C481E7083ED018AF5
:1015500001F024FB94ED000A394801F04FFD9FEDA6
:10156000390A374801F0C4FD9FED370A344801F0CD
:1015700027FE394694ED000A344801F063FAB0EED4
:10158000680A3946314801F045FAB0EE680A294642
:101590002E4801F03FFA04219FED2D0A2B4801F05F
:1015A00039FA2A4A2B4B94ED000A2B481360FEF7B8
:1015B0004FFF294BB0EE480A1C46184683ED018ABE
:1015C000FEF766FF2670FFF733FEFFF7A1FE234903
:1015D0000B4805F05FFA0A4804F035FF2049094836
:1015E0000DF5AB6DBDEC048BBDE8F04100F070BCB7
:1015F000B4190024AC040024000040421C13002451
:10160000D00B0024680D002480060024640600240A
:10161000DB0FC9400000C07F0000C8424C06002418
:101620003406002400007A430C060024E40500245C
:10163000BC050024CDCCCC3D9405002450050024ED
:10164000B404002400007A450000000020050024B6
:10165000CDCC4C3E3333333FF804002444680108BA
:10166000A5040008CDCC4C3F08B5FFF7E1FDFFF71E
:101670004FFE024B01221A7008BD00BF000100247A
:1016800008B51C4B1C481B6803661C4B1B68436653
:101690001B4B1B6883661B4B1B68C3661A4B1B687E
:1016A00003671A4B1B684367194B1B688367194B09
:1016B0001B68C367184B1B68C0F88030174B1B684A
:1016C000C0F88430164B1B68C0F88830154B1B6877
:1016D000C0F88C30144B1B68C0F890300223C0F85F
:1016E000B030FFF7FBFC11491148BDE8084011F08C
:1016F000B7BB00BF38040024600300244804002462
:1017000044040024400400243C0400243404002445
:10171000300400242C040024280400242404002481
:10172000200400241C04002418040024136401086D
:10173000B419002470B5AD4C204602F004FDAC484D
:1017400002F001FD6269BAB1AA490B681A44002A85
:101750000A6003DAFFF776F9421E0A60FFF772F9B2
:101760009042DCBF00220A60A3490B68934223DD4C
:101770000A60A24B01221A70237B7F2B01D1FFF755
:1017800043F99B4D6C69002C67D09D4E3378002B3C
:1017900049D1984B1B680C2B42D8DFE813F012009C
:1017A000260075008E00B800D100DF00E900F700C8
:1017B000F90003010501070102339342D9DA023A25
:1017C000D6E7904A9FED907A1368234407EE903A4B
:1017D000F8EEE77AC7FE877A9FED8C7AC7FEC77A64
:1017E000FDEEE77AC2ED007A1AE007EE104A884B68
:1017F0000121F8EEC76AD3ED007A9FED867AE6EE16
:10180000877A9FED857AC7FE877AB2EE047AC7FEA3
:10181000C77AC3ED007A93ED000A804801F0FAF828
:10182000764B01221A703378022B16D1714B1B684C
:10183000032B12D17A4E04EB84047A483368E11802
:1018400081F308013160C9B205F06EFD3268764B54
:10185000C3F8AC200122694B1A702B7B7F2B40F020
:10186000B680674B1B78022B40F0B180614B186843
:10187000062800F2AC80DFE810F09B009B009B0084
:10188000AA00B000B400F30007EE104A674B022133
:10189000F8EEC76AD3ED007A9FED5E7AE6EE877ABE
:1018A0009FED5D7AC7FE877AB2EE047AC7FEC77AEB
:1018B000C3ED007A93ED000AAFE707EE104A5C4BE8
:1018C000F8EEC76AD3ED007A9FED527AE6EE877A9A
:1018D0009FED4D7AC7FE877AB7EE007AC7FEC77ACA
:1018E000C3ED007AD3ED007AF5EEC07AF1EE10FA8E
:1018F0000AD9F4EEC77AF1EE10FAD8BFB0EE677AE3
:10190000464B83ED007A8BE79FED4A7AF8E707EEC6
:10191000104A494B0421F8EEC76AD3ED007A9FEDD7
:101920003D7AE6EE877A9FED3C7AC7FE877AB2EE83
:10193000047AC7FEC77AC3ED007A93ED000A6CE71C
:101940003E4A13689FED307A234407EE903AF8EE52
:10195000E77AC7FE877AB0EE087A3FE7384A13681D
:10196000E3421DD413682344032B09DD03230BE05A
:10197000344A1368E34213D413682344042B02DC73
:101980001368234400E00423136049E72E4AE6E786
:101990002E4A1368E34203D413682344002BEFDD7F
:1019A0000023F1E72A4ACCE72A4ACAE72A4AC8E7CD
:1019B0002A4B1A78062A07D8DFE802F0040A060D37
:1019C00006040400FFF772FB0C4B01221A7070BD75
:1019D00002221A70F8E70422FBE7BDE87040FFF727
:1019E0004FBEBDE87040FFF793BC00BF4C0600241B
:1019F00034060024A8040024A404002400010024C8
:101A00009D04002438040024000000000000484227
:101A1000480400240AD7233C6F12833A200500248F
:101A200034000024D00B002460030024440400246C
:101A3000400400240AD723BC3C04002434040024BE
:101A4000300400242C04002428040024240400244E
:101A5000200400241C040024180400249C040024F6
:101A6000BDE87040FFF700BE08B5104B104918687C
:101A7000104B1A68104B1B6860B9C1F89420C1F86C
:101A80009830FFF7C7F902230948C1F8B030FFF7D3
:101A900025FB08BD012807BFC1F89C20C1F8A03074
:101AA000C1F8A420C1F8A830EBE700BF440000242F
:101AB00060030024900400248C04002470B5204CA2
:101AC00023788BB3022B01D0042B2DD11D4B1B6827
:101AD0005BB3012B14BFC920CA2011F003FB1A4DC0
:101AE00007EE900A194E2B68F8EE677A96ED007AA9
:101AF000013377EE877AB3F5007F2B60C6ED007A6D
:101B000012DB23789FED127A022B67EE877A0ED1D3
:101B1000104BC3ED007A03232370002301223360AE
:101B200000232B600C4B1A7070BDCB20D5E70B4BFC
:101B3000C3ED007A05232370FFF796FFEDE700BFA2
:101B40009C040024440000249404002498040024ED
:101B50000000003B90040024000100248C040024B9
:101B600008B52DED028BFFF7E5FD9FED728AFFF7BB
:101B7000A5FFCB2011F0B6FA6F4B07EE100ACA2072
:101B8000D3ED006A6D4BB8EE477AD3ED007A6C4B1B
:101B9000E7EE267AC3ED007A11F0A4FA694B07EE5E
:101BA000100AC920D3ED006AB8EE477A664BD3ED30
:101BB000007A664BE7EE267AC3ED007A11F092FACE
:101BC000634B07EE100AC220D3ED006AB8EE477AE5
:101BD000604BD3ED007A604BE7EE267AC3ED007AD6
:101BE00011F080FA07EE900A5C4BC120F8EE677A9C
:101BF00087EE887A83ED007A11F074FA07EE900A86
:101C0000574BC020F8EE677A87EE887A83ED007A2A
:101C100011F068FA07EE900A524BC520F8EE677A89
:101C200087EE887A83ED007A11F05CFA07EE900A6D
:101C30004D4BC420F8EE677A87EE887A83ED007A00
:101C400011F050FA07EE900A484BC320F8EE677A7D
:101C500087EE887A83ED007A11F044FA07EE900A55
:101C6000434BC820F8EE677A87EE887A83ED007AD6
:101C700011F038FA07EE900A3E4BDFED3F6AF8EEBE
:101C8000677A3E4887EE887A83ED007A9FED3C7A4A
:101C9000D3ED007AB0EE470A67EEA77AA7EEA60A60
:101CA000F3EE047A80FE070A80FE670AFEF7F0FB77
:101CB000344B1B68032B06D8DFE803F002323538BB
:101CC0002E4B00221A70C72011F00CFA07EE900A72
:101CD0002D4BC620F8EE677A87EE887A83ED007A7E
:101CE00011F000FA07EE900A284B0520F8EE677A0B
:101CF00087EE887A83ED007A11F0AAFA0028244B47
:101D000014BF0122002204D0197811B92149012001
:101D100008701A70BDEC028BBDE80840FFF790B95F
:101D2000164B0122CEE7154B0222CBE7134B0422C0
:101D3000C8E700BF00C07F4440000024880400249E
:101D40007C0400243C000024840400247804002443
:101D50003800002480040024740400246C0400244F
:101D60006804002464040024600400245C0400244B
:101D7000580400245404002485EB9F41F8040024F7
:101D80000AD7233C34040024500400244C040024CB
:101D9000710400247004002438B5364A0623364CFA
:101DA000137082F8413004F10800344A137082F84D
:101DB0004130334A137082F84130324A137082F84E
:101DC00041300023304A63602260304AC4E92D2349
:101DD00005F001F820462E4B2E4A40F8083B2E49CC
:101DE0002E4B04F091FBFF230C2204F108000B2181
:101DF0000C2404F0D7FA2A4A2A4B013C136102F161
:101E00002002FAD128484FF400722849C0F8003265
:101E1000C0F82032C0F84032C0F86032C0F8C43296
:101E2000C82300F2F620224D40F80A3C11F076FD5E
:101E3000204B0022204905F108001A605A60996081
:101E4000DA601961596199612146DA611A625A6250
:101E500054229C85194B1C60C5E9003411F011FD1A
:101E60005422214605F15C0011F00BFDC5F8B0408D
:101E700038BD00BF86010030C80B002404010030CB
:101E80008200003000000030F4660108C76D0008D1
:101E90000C670108A16300089C70010899620008A2
:101EA000F00600240820803A800600243C5F0108E8
:101EB0006003002420050024000080BF14040024D7
:101EC0004FF4E0630A3003800523837003F0C6B942
:101ED000043001F00CBF043001F005BF08B5043038
:101EE00001F0FEFED0ED007AF8EE677AFCEEE77ABC
:101EF00017EE900A08BD0221202008B511F008F95C
:101F0000202011F0A5F9B0FA80F0400908BD0000CA
:101F10002DE9F043052B0D4690461E46044628BF8A
:101F200003264FF0010900272DED028B9FB005F02D
:101F300069FAA5F8088002F07BF803F023FB5E4BFA
:101F400028460E960B9303F10073CDF8449003F5E9
:101F500040730A970C934FF44173CDE90F97ADF896
:101F60003430FFF7C8FF484540F092800823ADF8B1
:101F700008000390514A0DEB03018DF80A70049399
:101F8000CDE9120705A801F097FFB5F908300AA9B5
:101F900002A8052B02BF00230122CDE91223002352
:101FA000CDE9023303F038F9B5F90830052B03D138
:101FB000424905A801F0FEFEB5F90830042B15D101
:101FC0000123002214A903A81D9314931896ADF8B9
:101FD0005C20CDE919333A4B159303F1012303F546
:101FE0007D03CDE91B22169303F016F93023CDE9CA
:101FF0000536B5F908302E1D042B53D140F6016388
:10200000ADF80430019801F081FE4FF07C5305A932
:1020100030460793DDE9022301F044FE2846FFF72E
:102020004FFF04F1700204F5F871264B1361203262
:102030009142FBD1C4F800324FF40072C4F8203250
:1020400004F2F620C4F84032C4F86032C4F8C43256
:10205000C8231D49C4F8EC3211F060FC304601F091
:1020600042FE2846B0EE408AFFF738FF07EE900A9E
:1020700041462046F8EE677A88EE270A85ED000A89
:1020800000F010FC20461FB0BDEC028BBDE8F083D1
:1020900040F60133ADF800300098CDE9127901F037
:1020A00035FE72E74FF07E53029A05A9304607933A
:1020B00001F0EAFDB2E700BF04020404840C00242E
:1020C000000106090820803A3C61010806230C4AF9
:1020D0000C210C48137082F841300B4A137082F8BF
:1020E00041300A4A137082F84130094A137082F86D
:1020F00041300022074B5A600B2203F0F1BA00BFB7
:102100008E030030840C00240C0300308A0200305F
:1021100008020030680D0024014803F05BBB00BFDB
:10212000840C002470B52DED028BB0EE408A04467D
:1021300084B0022502231B220121012603F0E8F9C5
:10214000B0EE480A04F1100002231C22012103F022
:10215000DFF9B0EE480A04F51C700D2319221A218C
:102160000095DFED1B8ACDE9015501F0C3FF04F5B1
:102170002270122313221421009602F0E5F804F2D3
:102180008D20172318221121009602F0DDF800237C
:10219000F0EE680A04F17000B0EE480A1A46C62153
:1021A00001F0F2FE0023F0EE680AC021B0EE480A0A
:1021B0001A4604F1900001F0E7FEC4F80855C4F88F
:1021C0000055C4F8FC5404B0BDEC028B70BD00BFD8
:1021D0006F12033B30B50225044600230B220C216D
:1021E00000F51C702DED028B85B0B0EE408ADFED5E
:1021F0002E8A0095CDE9015501F07CFF04F525708C
:10220000B7EE000A00231422012103F081F904F53E
:102210002970B7EE000A00231322012103F078F998
:102220000423F0EE680A04F17000B0EE480AC4F826
:10223000F834C4F8083501220023C021C4F804553D
:1022400001F0A2FEF0EE680AB0EE480A04F1900038
:1022500000230122C12101F097FEF0EE680AB0EEE2
:10226000480A04F1B00000230122C62101F08CFECF
:10227000F0EE680AB0EE480A0023012204F1D00013
:10228000C32101F081FE0121172010F041FF01213F
:10229000172010F03DFF0121112005B0BDEC028B8D
:1022A000BDE8304010F034BF6F12033B70B5C0E999
:1022B0000023049B04460626C3600B7803724B7808
:1022C0004372FF2380F820300023191120689A0000
:1022D00001EB811192B2465403F00F0025680133DF
:1022E00001EB8000202B0544A5F80120A5F8032070
:1022F00065686E5461680144A1F80120A1F80320CB
:10230000E3D104F11005217A094A41F04001284641
:1023100002F036F8284602F07CF8617A284641F04F
:10232000400102F032F82846BDE8704002F063B880
:102330001C130024DFED1C7A20EE270A13B5B5EE3E
:10234000C00AF1EE10FA2CD4B4EEE70AF1EE10FA5E
:10235000D8BFF0EE407AFCEEE77A0268CDED017A64
:102360009DF8043000EB43035C8CC1F3071301F0CC
:102370000F0103EB831303EB81031A44B2F801301E
:10238000C3F30B03E118C1F30B01A2F8031040F6ED
:10239000FE718C4288BF43F48053A2F8013002B032
:1023A00010BDDFED027AD6E700007F430000000099
:1023B000072930B504460D462DED028BF0EE608AFC
:1023C00087B0B0EE418A29D8B0F90C35022B25D15F
:1023D000144A6B4604F535749068D168124A03C3F9
:1023E00010685168114A03C31068516803C305F1AE
:1023F000180320460DEB030515F8181CFFF79AFF8C
:10240000B0EE680A15F8101C2046FFF793FFB0EEF7
:10241000480A15F8081C2046FFF78CFF07B0BDECF2
:10242000028B30BD3C6301082B660108346601084D
:10243000032907B50FD8B0F90C35022B0BD1074B88
:1024400000F53570019301F108030DEB030111F85C
:10245000041CFFF76FFF03B05DF804FB0F191A1B94
:10246000072A08B50B46114608D8B0F90C25032AEF
:1024700004D123B900F53570FFF75CFF08BD012BCF
:10248000FCD1C1F10F01F5E7072908B508D8B0F96B
:102490000C35032B04D1103100F53570FFF74AFFDE
:1024A00008BD0000B0F90C35022B70B504462DEDC7
:1024B000028B1ED100259FED1E8ADFED1D0AE9B2B9
:1024C0000135B0EE481AB0EE600A2046FFF770FF03
:1024D000082DF2D100259FED168AE9B20135B0EE44
:1024E000480A2046FFF7A4FF042DF6D1BDEC028B6D
:1024F00070BD032BFAD100259FED0D8AEEB2B0EE30
:10250000480A0021204632460135FFF7A9FFB0EE08
:10251000480A324601212046FFF7A2FFB0EE480AE2
:1025200031462046FFF7B0FF082DE7D1DEE700BFB8
:1025300000000000F8B5D0E9001204460023C0E90D
:10254000002101EB8300B0F8035002EB830001335C
:10255000A0F80350102BF4D1002301EB8300B0F856
:10256000445002EB83000133A0F84450102BF4D107
:10257000FF2304F1100784F8203094F92050012D36
:1025800008DC01356DB2022D84F8205003D1FF2301
:1025900084F82030F8BD6319002605EB8515384610
:1025A000197A41F0400101F0F0FE05EB8603626804
:1025B000F1B201361A443846B2F80330B2F80120BD
:1025C00001F05CFF102EF0D1D7E708B5B0F80C355C
:1025D000023B9BB2012B03D800F53570FFF7AAFF31
:1025E00008BD00000C23624A70B52DED028B86B049
:1025F000C0F800350623022507260446C0F8083532
:102600004FF48073B0EE408A05A9ADF814304FF056
:10261000FF33C0F8FC6400F53570C0F82452009315
:10262000544BFFF743FE2046FFF73CFF2046FFF7E1
:10263000CCFFB0EE480A04F51C700E231B221C21AF
:102640000095DFED4D8ACDE9015501F053FD0023E2
:10265000F0EE680A04F17000B0EE480A1A46C12193
:1026600001F092FC0023F0EE680A04F19000B0EE55
:10267000480A1A46C42101F087FC0023F0EE680ADC
:1026800004F1B000B0EE480A1A46C22101F07CFC09
:102690000023F0EE680A04F1D000B0EE480A1A46B2
:1026A000C52101F071FC0023F0EE680A04F1F0008E
:1026B000B0EE480A1A46C32101F066FC0023F0EE92
:1026C000680A04F58870B0EE480A1A46C62101F07F
:1026D0005BFC0023F0EE680A04F52D70B0EE480AAA
:1026E0001A46C02101F050FCB0EE480A2B462046A5
:1026F0000822012102F00CFFB0EE480A2B4604F13B
:1027000010000922012102F003FFB0EE480A2B4617
:1027100004F120000A22012102F0FAFEB0EE480A7C
:102720002B4604F130000D22012102F0F1FEB0EE43
:10273000480A2B4604F140001922012102F0E8FE6C
:10274000B0EE480A2B4604F150001A22012102F093
:10275000DFFEB0EE480A2B463246012104F160004C
:1027600006B0BDEC028BBDE8704002F0D1BE00BFE8
:1027700092040030100400306F12033B70B5022544
:1027800004461E2200212B461B262DED028BB0EEA7
:10279000408A84B0C0F8FC54C0F8F85402F0B8FE87
:1027A000B0EE480A2B4604F110001D22002102F071
:1027B000AFFE4FF40073384A03A9ADF80C304FF068
:1027C000FF3304F535701A250093344BFFF76EFD87
:1027D0002046FFF767FE2046FFF7F7FE0121152090
:1027E00010F096FC0121142010F092FC012113201E
:1027F00010F08EFC0023DFED2A0AB0EE480A1A46DC
:1028000004F17000C12101F0BFFB1C200121C4F8BC
:102810001465C4F81005C4F82C05C4F8185510F058
:1028200077FC30460121C4F8306510F071FC284671
:102830000021C4F8345510F06BFC1022002104F282
:102840001C5011F01EF8B0EE480A04F5F870C221D1
:1028500001F0C2FBB0EE480A04F50470C32101F098
:10286000BBFBB0EE480A04F50C70CA2101F0B4FBC2
:10287000B0EE480A04F51470C92101F0ADFB012146
:10288000172010F045FC0121162004B0BDEC028B8E
:10289000BDE8704010F03CBC9605003014050030D7
:1028A0006F12033B0223A0F80C150139C0F8F8346D
:1028B0000023C0F80835C0F80435C0F8FC34C0F86F
:1028C000003503290BD8DFE801F002040608FFF702
:1028D00029BCFFF787BEFFF751BFFFF77BBC7047EE
:1028E0000623084A137082F84130074A137082F8B1
:1028F0004130064A137082F84130054A137082F85D
:1029000041307047960500301405003092040030C5
:1029100010040030012380F82C3009B100234360FB
:1029200070470000D0ED047AF4EE407A10B5F1EE75
:1029300010FA04462DED048BB0EE409AB0EE608A9A
:1029400006D1D0ED027AF4EE607AF1EE10FA32D0D0
:10295000B5EEC09A84ED049AF7EE008A84ED028AFF
:10296000F1EE10FA25DDF2EE040AB0EE480A11F09D
:1029700001FCDFED127A28EE278AF2EE027AA0EE51
:10298000278ADFED0F7A38EE278A88EE880A84EDF1
:10299000038A38EEC00A11F0BDFBD4ED0A7AF8EED6
:1029A000E77A67EE897A80EE270A11F053FB78EE1A
:1029B000C08AC4ED078ABDEC048B10BD9A99993E7C
:1029C000AE47813FD1ED007AF4EE407A10B5F1EEDA
:1029D00010FA14462DED028B18D0B5EEC00A81ED29
:1029E000000AB7EE008AF1EE10FA0DDDD0ED0A7A9A
:1029F000F8EEE77A67EE807ABFEE000A80EE270AEB
:102A000011F028FB38EE408A84ED008ABDEC028B81
:102A100010BD0000022907D004290BD001290ED1D6
:102A2000DFED070AFFF77EBF00F1200200F114017D
:102A3000FFF7C8BF00F1240200F11801F8E7704762
:102A40000000000007EE101A194BDFED1A0AB8EE6D
:102A5000C77A10B5C0EE077A04462DED028B83606D
:102A6000036143618361144B9FED148A036000236B
:102A7000B0EE480AC0ED030AC0ED010AFDEEE77AA8
:102A80008385C0ED0A7AFFF74DFFB0EE480A04F1E6
:102A90001401204604F12002FFF794FFB0EE480A2B
:102AA00020460421BDEC028BBDE81040FFF7B2BF09
:102AB000000080BF000000003333333FCDCCCC3D5D
:102AC00090F82D30F1B113B9012380F82C3090F833
:102AD0002C3080F82D10022B18D190ED087AD0ED13
:102AE000007A90ED010A77EEC07AA7EE870AB5EE7C
:102AF000C00AF1EE10FA26D500234360002380F8C7
:102B00002C300CE0002BE2D00423DEE7042B04D1B0
:102B100090ED097ADFED117AE3E7012B02D09FED0A
:102B2000100A704790ED010AD0ED037A90ED077A14
:102B300077EEC07AA7EE870AF7EE007AB4EEE70ADE
:102B4000F1EE10FA02DC80ED010A70470223B0EECC
:102B5000670AC0ED017A80F82C3070470AD723BC91
:102B600000000000B5EEC00AF0EE407AF1EE10FA77
:102B700011D4B1EE007AB4EEC70AF1EE10FA08DA19
:102B8000B6EE007AB4EEC70AF1EE10FA03D411F0F3
:102B900091BBF7EE007AB0EE670A704700230A4A4D
:102BA00080ED0E0A03604260C360084A436203611D
:102BB00083624361C3628361C36103620363044B45
:102BC00082604363704700BFCDCCCC3E00007A44A6
:102BD000000080BFD0ED017A90ED027AF5EEC07A68
:102BE0002DE9F041F1EE10FA04462DED088BDFEDF2
:102BF000608AB0EE409A84B0DFED5E9A58BFF0EE86
:102C0000678AD0ED0C7AF4EE477AF1EE10FA07D12C
:102C1000D0ED0D7AF4EE687AF1EE10FA00F09580BE
:102C2000D4ED0E6AB6EE000A84ED0C7AC7EE267A71
:102C30009FED517A9FED516A67EEA76A27EE800AF1
:102C400066EEA65A26EE877AA5EE867A9FED4C6A46
:102C5000A7EEC67A9FED4B6A37EE067A9FED4A6A79
:102C600067EE867A9FED496AE6EE867ADFED486A7E
:102C700037EEA68ADFED477A20EE270A27EE400AD4
:102C800011F0E8F9F7EE007AC4ED0D8A84ED0F8AB1
:102C900077EEC07A87EEA9AA84ED10AAF1EE007A49
:102CA0004FF00208B6EE00BA68EEA78A68EE888A8E
:102CB000D4ED087A204694ED038A6F46A7EEE89A91
:102CC00004F11005012629EE290AFFF74BFFD4ED88
:102CD000097A30EE670AF0EE487AE0EE0A7ACDED36
:102CE000007AC4ED037AB7EC019A2046F5EC01AA0C
:102CF00029EE290AFFF736FF032EB0EE408A85ED54
:102D0000040A2CD095ED050A38EE408A0136F0EE23
:102D10006A7A042EE8EE0A7AC7ED007A45ED017A68
:102D2000E1D1DDED037AB8F1010F94ED070AC4EDAE
:102D3000077A37EE800A20EE0B0A84ED080A0BD1E1
:102D400004B0BDEC088BBDE8F081F0EE678A90ED31
:102D50000F8A90ED10AAA1E74FF00108A8E715ED42
:102D6000010A204620EE290AFFF7FCFECCE700BF4F
:102D70000000000017B7D1372DB2FD3E77BEEF3F00
:102D8000DD24263F5BB17F3F9CA2EB3FFAED7BC089
:102D9000492E7F3FDB0FC940DFED167A60EE277AC0
:102DA000B7EE000AF4EEE07AF1EE10FA0ADD80EEFA
:102DB000A77AF0EE006A67EE477AE7EE267A37EEFA
:102DC000C00A704730EE677AB4EEE07AF1EE10FA9E
:102DD00041BF70EEC00A80EEA77AF0EE477AE7EEC8
:102DE000077A46BF77EE877A37EE800A9FED020AB0
:102DF000704700BF83F9223E00000000037810B541
:102E000004462DED068BD0ED059AD0ED068A9FED98
:102E1000709A072B00F2D780DFE803F00431424FAD
:102E20005A6698A9B0EE690A11F00AFA79EEA89AE2
:102E3000DFED687AF4EEE79AF1EE10FAC6BF79EEAC
:102E4000E79A0123002379EEE88AC4ED059A84F815
:102E50002530F4EEC98AF1EE10FA40F1B780F4EEB5
:102E6000C99AF1EE10FAACBF01230023D4ED017A28
:102E700084F8243020EE270ABDEC068B10BD39EE15
:102E8000A97ADFED557ABFEE000AA7EE270AF6EE23
:102E9000007AB0EEC00A30EE670A30EE000AC5E7ED
:102EA000DFED4D7AB0EE007ABFEE000A69EEA77A48
:102EB000A7EE870AB1EE400AB8E7DFED477AB0EE39
:102EC000007ABFEE000A69EEA77AA7EE870AADE79F
:102ED000F4EEC99AB7EE000AFFEE007AF1EE10FAAE
:102EE00058BFB0EE670AA1E7F4EEC99A9FED3A6ABF
:102EF000B7EE008ABFEE00AAF1EE10FA29EE866A5C
:102F0000B0EE680A48BFB0EE48AAF0EE460AFFF7F6
:102F100043FFF0EE480A3AEE00AAB6EE000A36EE9B
:102F2000000A11F0D3F8F0EE400AB0EE680AFFF79D
:102F300033FF3AEE40AA38EE680AD4ED077A20EE65
:102F4000270AAAEE280A84ED070A6FE7DFED220AB6
:102F5000F0EE007ABFEE006A69EEA00AB0EE680AF1
:102F6000A0EEA76AFFF718FF36EE400AA2E7F4EEDC
:102F7000C99A9FED196AF7EE005ABFEE008AF1EE8A
:102F800010FA29EE866AB0EE680A48BFB0EE658A8C
:102F9000F0EE460AFFF700FFF0EE650A38EE008A11
:102FA000B6EE000A36EE000A11F090F8F0EE400A94
:102FB000B0EE680AFFF7F0FE38EE400ADFED077A60
:102FC00020EE270A32E79FED060A2FE700234DE7A0
:102FD000DB0F4940DB0FC94083F9223EF4FD343F4B
:102FE00000000000DFED047A20EE270AD0ED047A1D
:102FF00020EE270A704700BFDB0FC9400C4B80ED65
:10300000000A43604FF07C538360C3604FF07A53F3
:103010000361002343618361C3610362436283628E
:10302000C362036403634363C3638363704700BF86
:1030300000004843F0EE403A90ED097AD0ED044AA2
:1030400090ED055AF0EE476AD0ED075AE5EE473AA3
:10305000D0ED037AE7EE245A80ED0B0A27EE276ABB
:1030600026EE076A33EEE54AE4EE846A35EEC43AAA
:10307000E7EE466AB0EE657AA5EE660AA4EEA67A99
:10308000B0EE666A67EEA67A67EEA67A80ED060A6B
:1030900030EE475A80ED077AA4EE856A80ED085A33
:1030A000A6EEE76AF6EE007A67EE274A37EE457A33
:1030B00020EE270A80ED096AE5EEA74A26EE276A88
:1030C00065EE275A27EE277AA6EEA76AE4EE275A7E
:1030D000A3EE277AC0ED0C4AA3EEA70A80ED0E6A94
:1030E000C0ED0D5A80ED0F7A80ED100A7047000098
:1030F0009FED317AD0ED007AB4EEC70A10B5F1EE4B
:1031000010FA04462DED068BB6EE00AAB7EE009A33
:103110004ED427EE8A7AB4EEC07AF1EE10FA01D5D9
:1031200037EE490A77EEA77A84ED010AF5EE008AB8
:1031300080EE277A9FED210AB4EEE87AF1EE10FADC
:10314000C8BFB0EE687A27EE000A11F079F830EEC9
:10315000008AD4ED029AF0EE680AB0EE690A84EDB6
:10316000048A11F007F8F0EE007A39EE400A87EE93
:10317000887A30EE000AA8EE4A7AB4EEE77AF1EEE9
:1031800010FAD8BFF0EE477AF4EEC07AF1EE10FAFA
:1031900009DDF0EE680AB0EE690A10F0EBFF79EE97
:1031A000407A77EEA77AC4ED057ABDEC068B10BDA8
:1031B000B0EE470AB6E700BFBD378635DB0F4940A2
:1031C000B5EEC00A10B5F1EE10FA04462DED028BF3
:1031D000F7EE008A39D4B4EEE80AF1EE10FAD4BF63
:1031E000B0EE408AB0EE688AF5EE000A84ED028AFD
:1031F000B0EE480A10F0BEFFF0EE007AD4ED046A9B
:10320000B6EE006A38EEC00A87EEA67A30EE000A03
:10321000A6EEC67AB4EEE77AF1EE10FAD8BFF0EE79
:10322000477AB4EEE70AF1EE10FA09D5F5EE000A96
:10323000B0EE480A10F09EFF78EEC07A77EEA77ADB
:10324000C4ED057ABDEC028B10BD9FED018ACBE782
:1032500000000000D0E9052322B1002B0CBF0220A2
:1032600004207047181E18BF01204000704700005E
:103270002DE9F04FC04E89B080468A46A6F1140968
:10328000304600AF154601F0D7FF04464846FFF729
:10329000E1FF834630B3D9F8043064699E46002BC1
:1032A00000F07881AB00EB46012C03F1070323F01B
:1032B0000703ADEB030D6846ADEB030D6E463BD047
:1032C000022C13D0002C65D02A463146734698470D
:1032D000012C00F0C280022C00F08280002C00F053
:1032E000F780DD462437BD46BDE8F08F99ED0B7AB7
:1032F00002460023DFEDA16A08F1040CAB4202F1A3
:103300000802E1D258F8231007EE901A5CF8231057
:103310000233F8EEE77A67EEA67A67EE877A42ED37
:10332000027A07EE901AF8EEE77A67EEA67A67EE71
:10333000877A42ED017AE1E799ED0B7A01460022A6
:10334000DFED8F6A08F1040CAA4201F10801BBD23B
:1033500058F8223083F40003A3F5000307EE903AF7
:103360005CF822300232F8EEE77A83F40003A3F52A
:10337000000367EEA67A67EE877A41ED027A07EEE0
:10338000903AF8EEE77A67EEA67A67EE877A41ED33
:10339000017AD9E799ED0B7A02462346DFED796A87
:1033A00008F10401AB4202F108028DD238F923C0C2
:1033B00007EE90CA31F923C00233F8EEE77A67EEE0
:1033C000A67A67EE877A42ED027A07EE90CAF8EEA7
:1033D000E77A67EEA67A67EE877A42ED017AE1E74F
:1033E00099ED046A00239FED687A0AF10402DFED8B
:1033F000676AAB42BFF475AFD6ED007A66EE277A06
:10340000F4EEC77AF1EE10FA40F2B080F4EEE67A0C
:10341000F1EE10FAA8BFF0EE667AFEEEE07A17EE53
:10342000901AD6ED017A66EE277A4AF82310F4EE68
:10343000C77AF1EE10FA40F29C80F4EEE67AF1EEF3
:1034400010FAA8BFF0EE667AFEEEE07A083617EEC4
:10345000901A42F823100233CBE799ED046A002357
:103460009FED497A0AF10402DFED486AAB42BFF4EE
:1034700038AFD6ED007A66EE277AF4EEC77AF1EE31
:1034800010FA6DD9F4EEE67AF1EE10FAA8BFF0EE7C
:10349000667AFEEEE47A17EE901AD6ED017A66EEC1
:1034A000277A4AF82310F4EEC77AF1EE10FA5AD9C7
:1034B000F4EEE67AF1EE10FAA8BFF0EE667AFEEED0
:1034C000E47A083617EE901A42F823100233CDE75B
:1034D00099ED046A0AF104029FED2B7ADFED2B6A65
:1034E000DFED2B5AAC42BFF4FCAED6ED007A66EEAF
:1034F000277AF4EEC77AF1EE10FA2BD9F4EEE67AD9
:10350000F1EE10FAA8BFF0EE667A67EEA57AFDEE4E
:10351000E77A17EE903AD6ED017A66EE277A1BB27B
:103520004AF82430F4EEC77AF1EE10FA15D9F4EE29
:10353000E67AF1EE10FAA8BFF0EE667A67EEA57AA9
:103540000836FDEEE77A17EE903A1BB242F82430C7
:103550000234C7E7F0EE477AD7E7F0EE477AEDE7B7
:10356000F0EE477A95E7F0EE477AA8E7F0EE477A73
:1035700053E7F0EE477A67E78C0D00240000003037
:10358000000000340000003804FF7FBF04FF7F3FCD
:1035900000FEFF4656F8143C3B61002B3FF4A2AE00
:1035A000301DC7F80CD001F055FEBBF1020F4FEAF9
:1035B0008B01F86114BF6A002A460731BBF1020F84
:1035C0004FEA820321F0070103F1070323F0070309
:1035D000ADEB030DB2FBFBF2C7F814D0ADEB030D5E
:1035E0007B69EC46ADEB010D03EB82036846ADEB66
:1035F000010D7969BB616E4643600CEB820301608B
:103600004FEA8201CDF800C0019308D0BA690B449B
:103610000A4402930B4482600A440393C260012C63
:103620006BD0022C12D0002C00F0D0806A083146FA
:103630003B699847012C00F0AB81022C00F02181FE
:10364000002C00F02082D7F80CD04BE6DFF834E3F2
:103650000021FA69DEF820309FEDC77A03EB820C77
:1036600008F104037B60A942E0D24B087A69DEEDE1
:103670000B6ABBF1020F02EB83024FEA8309BA60C7
:1036800058F8212007EE902ABA68F8EEE77A67EE3C
:10369000877A67EEA67AC2ED007ABA6902EB8303F5
:1036A0007A6852F8212007EE902ABA60F8EEE77A9D
:1036B00067EE877A67EEA67AC3ED007A19D0DCED63
:1036C000007A8268F8EEE77AC3684A444B4467EEB2
:1036D000877A67EEA67AC2ED007ADCED017ADEED3C
:1036E0000B6AF8EEE77A67EE877A67EEA67AC3EDA3
:1036F000007A02310CF1080CB5E7DFF888C200222D
:10370000FB69DCF820109FED9D7A01EB830108F145
:1037100004037B60AA4289D24FEA52097B69DCED3F
:103720000B6ABBF1020F03EB89034FEA890EBB6002
:1037300058F8223083F40003A3F5000307EE903A13
:10374000BB68F8EEE77A67EE877A67EEA67AC3ED94
:10375000007ABB6903EB89097B6853F8223083F454
:103760000003A3F5000307EE903AF8EEE77A67EE60
:10377000877A67EEA67AC9ED007A24D0836803EBD6
:103780000E090B6883F40003A3F5000307EE903ADB
:10379000C368F8EEE77A9E444B6867EE877A83F455
:1037A0000003A3F5000367EEA67AC9ED007A07EEE1
:1037B000903ADCED0B6AF8EEE77A67EE877A67EE0F
:1037C000A67ACEED007A02320831A3E7DFF8B4E141
:1037D0002146FA69DEF820309FED697A03EB820C0E
:1037E00008F104037B60A942BFF420AF4B087A695B
:1037F000DEED0B6ABBF1020F02EB83024FEA830995
:10380000BA6038F9212007EE902ABA68F8EEE77A14
:1038100067EE877A67EEA67AC2ED007ABA6902EBA4
:1038200083037A6832F9212007EE902AF8EEE77ACE
:1038300067EE877A67EEA67AC3ED007A1DD0BCF9F1
:103840000030826807EE903AC3684A44F8EEE77A9F
:103850004B4467EE877A67EEA67AC2ED007ABCF930
:103860000420DEED0B6A07EE902AF8EEE77A67EEA9
:10387000877A67EEA67AC3ED007A02310CF1080C64
:10388000B1E7404B0AF104049FED3F7A986A93ED4B
:10389000046AFB69DFED3D6A00EB83000023AB4265
:1038A000BFF4D1AE5A08316801EB82014FEA820CB5
:1038B000D1ED007A66EE277AF4EEC77AF1EE10FACF
:1038C00040F27F81F4EEE67AF1EE10FAA8BFF0EE56
:1038D000667A7168FEEEE07A614417EE902AD1EDC7
:1038E000007A4AF8232066EE277AF4EEC77AF1EEE2
:1038F00010FA40F26981F4EEE67AF1EE10FAA8BF10
:10390000F0EE667AFEEEE07ABBF1020F17EE902A37
:1039100044F823202DD0B1686144D1ED007A66EEE1
:10392000277AF4EEC77AF1EE10FA40F25081F4EE05
:10393000E67AF1EE10FAA8BFF0EE667AF268FEEED3
:10394000E07A6244C0ED007AD2ED007A66EE277A22
:10395000F4EEC77AF1EE10FA40F23C81F4EEE67A2A
:10396000F1EE10FAA8BFF0EE667AFEEEE07AC0ED56
:10397000017A0233083092E7000000300000003482
:1039800000000038780D002404FF7FBF04FF7F3F54
:10399000924B0AF104049FED927A986A93ED046ABF
:1039A000FB69DFED906A00EB83000023AB42BFF4BC
:1039B0004AAE5A08316801EB82014FEA820CD1ED20
:1039C000007A66EE277AF4EEC77AF1EE10FA40F24A
:1039D000EC80F4EEE67AF1EE10FAA8BFF0EE667A2B
:1039E0007168FEEEE47A614417EE902AD1ED007A18
:1039F0004AF8232066EE277AF4EEC77AF1EE10FA41
:103A000040F2D680F4EEE67AF1EE10FAA8BFF0EEBE
:103A1000667AFEEEE47ABBF1020F17EE902A44F8C4
:103A200023202DD0B1686144D1ED007A66EE277A6B
:103A3000F4EEC77AF1EE10FA40F2BD80F4EEE67AC9
:103A4000F1EE10FAA8BFF0EE667AF268FEEEE47AC4
:103A50006244C0ED007AD2ED007A66EE277AF4EE89
:103A6000C77AF1EE10FA40F2A980F4EEE67AF1EEB0
:103A700010FAA8BFF0EE667AFEEEE47AC0ED017AA5
:103A80000233083092E7554B0AF104009FED547A57
:103A9000996A93ED046AFB69DFED526A01EB8301D9
:103AA000DFED515AAC42BFF4CEAD6308326802EB91
:103AB00083024FEA830CD2ED007A66EE277AF4EEA9
:103AC000C77AF1EE10FA64D9F4EEE67AF1EE10FA64
:103AD000A8BFF0EE667A67EEA57A72686244FDEEE2
:103AE000E77A17EE903AD2ED007A66EE277A1BB2AB
:103AF0004AF82430F4EEC77AF1EE10FA4CD9F4EE1D
:103B0000E67AF1EE10FAA8BFF0EE667A67EEA57AD3
:103B1000BBF1020FFDEEE77A17EE903A1BB240F8C8
:103B2000243033D0B2686244D2ED007A66EE277A50
:103B3000F4EEC77AF1EE10FA31D9F4EEE67AF1EE4E
:103B400010FAA8BFF0EE667A67EEA57AFDEEE77A86
:103B500017EE903A1BB20B60F3686344D3ED007A22
:103B600066EE277AF4EEC77AF1EE10FA1AD9F4EE7F
:103B7000E67AF1EE10FAA8BFF0EE667A67EEA57A63
:103B8000FDEEE77A17EE903A1BB24B600234083133
:103B900088E7F0EE477A9EE7F0EE477AB6E7F0EE78
:103BA000477AD1E7F0EE477AE8E7F0EE477A17E791
:103BB000F0EE477A2DE7F0EE477A46E7F0EE477AE7
:103BC0005AE7F0EE477A84E6F0EE477A9AE6F0EEAE
:103BD000477AB3E6F0EE477AC7E600BF780D0024D7
:103BE00004FF7FBF04FF7F3F00FEFF467FB5044612
:103BF00001A8089E04F1080580E80E0007C885E8C2
:103C00000B00D4ED047AF5EEC07AF1EE10FA02DC86
:103C1000012004B070BDF7EE006A86EEA77A84ED4D
:103C20000B7A002EF4D0204640F8146F01F004FB0C
:103C300003690020E360024BE361024B6362E8E743
:103C40001826003018060030836937B504460D4643
:103C500043B183680022183000929B00026981689A
:103C600001F0ECFAA36804F11400064A9B000092EC
:103C7000626AE16901F0E2FA00202560606003B049
:103C800030BD00BF7132000807B503460448186014
:103C900000920EC9FFF7AAFF03B05DF804FB00BF56
:103CA000780D0024F0B50B4D87B017461E46056011
:103CB00003AC07C984E807000097284694E80E0083
:103CC000FFF794FF044B0020AE612B62034BAB6205
:103CD00007B0F0BD780D00241836003018160030FB
:103CE0000068083070470068143001F0B0BA08B5B9
:103CF0000068FFF7A9FF002008BD0000024B00226A
:103D0000C3E90522704700BF780D00241FB50124C8
:103D1000ADF80C0003A8ADF80E4000F043FA2146C0
:103D200003A800F0EFFA204601F05EFC002103A892
:103D300000F0E8FA204601F057FC214603A800F005
:103D4000E1FA04B010BD70B50E4601790446006872
:103D50004908154601F074FD2068314603681B6868
:103D600098470021206801F016FE01222179206881
:103D7000D14001F086FE206803685B69984728708F
:103D8000002070BD70B50E460179044600684908F0
:103D9000154601F055FD2068314603681B689847B9
:103DA0002068294603681B689847206801F06EFE6A
:103DB000002070BD37B50446084621602E4901F049
:103DC0001DFD20681B221A230021C0E9212301F0D8
:103DD00023FF8C230DF10502402123712046FFF7BC
:103DE000B2FF9DF805204021204602F07F02FFF738
:103DF000C9FF042001F0F8FB0DF105024021204627
:103E0000FFF7A1FF9DF805204021204602F0BF02E8
:103E1000FFF7B8FF042001F0E7FB0DF10602432194
:103E20002046FFF790FF0DF1070248212046FFF7DB
:103E30008AFF9DF807509DF80620432145F00105B3
:103E4000204642F00102FFF79DFF2A464821204606
:103E5000FFF798FF0DF1050240212046FFF773FFA1
:103E60009DF805204021204602F0CF02FFF78AFF8F
:103E7000002003B030BD00BF801A060070B51546A3
:103E800004460E46017C006801F0D2FC2068C5F3B0
:103E9000002343EA46010368C9B21B6898472068BB
:103EA000E9B203681B689847206801F0EFFD0A201B
:103EB00001F09AFB002070BD38B503460446154654
:103EC00043F8042B07C983E8070028462D4901F071
:103ED00095FC20681B2274230021C0E9212301F0F6
:103EE0009BFEA37900220F211A3320462374FFF78B
:103EF000C5FF172200212046FFF7C0FF172201212E
:103F00002046FFF7BBFF002202212046FFF7B6FF45
:103F1000002203212046FFF7B1FF12220421204690
:103F2000FFF7ACFF002205212046FFF7A7FF23790A
:103F300006212046002B14BF62224222FFF79EFF7B
:103F400007212046D4E902231A43637942EA431247
:103F5000237983F0010342EA8312D2B2FFF78EFF86
:103F6000002208212046FFF789FF00220921204670
:103F7000FFF784FF012209212046FFF77FFF002081
:103F800038BD00BF801A0600F8B50D460446002172
:103F90001E46284617462DED028BB0EE408AF0EE05
:103FA000608A0FF0B5F8F6EE007A002384ED028AFD
:103FB00028EE288A2570E360A36128EE278A2777F8
:103FC000F7EE007A667787EE887AC4ED057ABDEC65
:103FD000028B84ED017AF8BD38B50D460446002108
:103FE00028462DED028BB0EE408A0FF091F8DFED00
:103FF0000F7AF7EE006A0023257084ED028A28EE1E
:10400000278AF6EE007AE3604FF0804328EE278A95
:1040100063614FF48073C4ED067A86EE887AA383D9
:10402000BDEC028B84ED017A38BD00BF6F12033BFB
:10403000244B07B5D3F8D8200B2042F00102C3F877
:10404000D8200022D3F8D830114603F001030193A1
:10405000019B04F023F90B2004F052F900220C20FC
:10406000114604F01BF90C2004F04AF900220D203F
:10407000114604F013F90D2004F042F900220E203D
:10408000114604F00BF90E2004F03AF900220F203B
:10409000114604F003F90F2004F032F90022102039
:1040A000114604F0FBF8102004F02AF90022112038
:1040B000114604F0F3F8112003B05DF804EB04F0AE
:1040C0001FB900BF00440258203100290EDD20F046
:1040D0001F00BFF34F8F064B2039C3F85C0220301E
:1040E0000029F9DCBFF34F8FBFF36F8F704700BF1C
:1040F00000ED00E02DE9F04104461E460023154680
:1041000008462DED028B63614FF6FF73B0EE408AD7
:104110009DF824802382E274A1749DF820109DF8FC
:1041200028700EF0F5FF414628460EF0F1FFB0EE84
:10413000480A3B46324620460121BDEC028BBDE8D1
:10414000F04101F0E5B970B50546807C0FF080F8CC
:104150000446E87C0FF07CF80646284601F0ECF9AE
:104160002B7C6A7C44EA430346EA42005BB242B2DB
:1041700003F00F01C0B22B740E2901D151070CD0EE
:1041800002F00F020E2A0AD103F00703B3FA83F3F9
:104190005B095B4268746B6170BD0123FAE7002321
:1041A000F8E7000030B583788FB00446022B21D0A9
:1041B000032B02D0591E4B424B410A93E378012B4B
:1041C00003D09A1E534253415B000B9300232046B9
:1041D0000C9300F0A9F80546204600F0ADF82378CE
:1041E0000990082B15D8DFE803F0071A2836445247
:1041F000606E7C001123E0E7414BD3F8E02042F0F1
:104200000102C3F8E020D3F8E03003F0010300938B
:10421000009B09A9284605F005F90FB030BD384BC1
:10422000D3F8E02042F00202C3F8E020D3F8E030F7
:1042300003F002030193019BEBE7314BD3F8E0203D
:1042400042F00402C3F8E020D3F8E03003F00403A6
:104250000293029BDDE72A4BD3F8E02042F00802EC
:10426000C3F8E020D3F8E03003F008030393039B86
:10427000CFE7234BD3F8E02042F01002C3F8E02050
:10428000D3F8E03003F010030493049BC1E71C4B08
:10429000D3F8E02042F02002C3F8E020D3F8E03069
:1042A00003F020030593059BB3E7154BD3F8E020FB
:1042B00042F04002C3F8E020D3F8E03003F04003BE
:1042C0000693069BA5E70E4BD3F8E02042F0800250
:1042D000C3F8E020D3F8E03003F080030793079B96
:1042E00097E7074BD3F8E02042F48072C3F8E02050
:1042F000D3F8E03003F480730893089B89E700BF8C
:104300000044025870B506460D4600F00DF804460C
:10431000304600F011F82A1E0146204618BF01223F
:10432000BDE8704005F002BA0278024B53F8220053
:10433000704700BFCC6701084278024B33F8120087
:10434000704700BFAC67010870B504461D469DF874
:104350001030164608462170237101216270A57045
:104360000EF0D6FE304601210EF0D2FE2846012185
:10437000BDE870400EF0CCBE0368C9B21B68184798
:104380000023C2600170436070470170704710B530
:1043900004460178C06801F04BFAE06801F076FB52
:1043A0006060B0FA80F0400910BD70B504460E465A
:1043B00001781546C06801F03BFAE06831460368B1
:1043C0001B689847E068294603681B689847E068BF
:1043D00001F05CFB606070BD10B401294FF0000477
:1043E000446004D9FD225DF8044B426070475DF8DB
:1043F000044BFFF7DABF0021202210B504464160CC
:10440000FFF7EAFF362220460121BDE81040FFF702
:10441000E3BF38B504460021C06801F0FDFB20462B
:10442000FFF7B5FF054610B12046FFF7E4FF284629
:1044300038BDF8B504460F4601781646C0681D46DB
:1044400001F0F6F9E068394603681B689847E068B0
:10445000F1B2FFF791FFC6F30421E068FFF78CFF8C
:10446000E068E9B2FFF788FFC5F30421E068FFF7D1
:1044700083FFE06801F00AFB6060F8BD30B40F29EB
:104480004FF00005456003D9FE2330BC4360704700
:104490008900063130BC01F0FE01FFF7CABF10B53C
:1044A0004FF4807390B0A02204460893EB2304924B
:1044B000062202934FF4406307924FF08052099313
:1044C0004FF400530F924FF0407205934FF4404366
:1044D0000B9202A90A9300236A4610300693CDE995
:1044E0000D33CDE9003307F06CFB10B1012084F8E7
:1044F0005C0010B010BD30B54FF4807295B00B4623
:104500004FF080710C92052201240546069200228C
:104510000F9110300B9206A913920092049201940D
:104520000394CDE90D22CDE91122102202924FF41D
:10453000800205926A4607F0F0FA10B1204685F82D
:104540005C4015B030BD30B54FF480738FB000F1D2
:10455000100504460693662341F2883269460093AB
:1045600000232846099305930D93CDE90733CDE940
:104570000B3307F0C8F920B1012084F85C000FB0BC
:1045800030BD992341F2883269462846009307F0EE
:10459000BAF90028F0D141F288312046FFF7ABFF8D
:1045A0000028ECD0E8E710B5044601F05BF80728D6
:1045B00005BF03230120002084F85C3010BD30B516
:1045C0004FF4807395B004460C93062306930023A2
:1045D000CDE90D330F930B931393CDE91133FFF70F
:1045E000E2FF58B904F1100541F2883206A92846C5
:1045F00007F089F928B1012384F85C30012015B057
:1046000030BD022310224FF4800104902846CDE9EA
:1046100000330123CDE9022305236A46CDE90513C2
:104620004FF0807306A90F9341F2883307F075FAB3
:104630000028E4D0DFE730B5002391B04FF480725A
:10464000044600F11005ADF806300A930793CDE952
:1046500008234FF080720B920122CDE90E33CDE991
:104660000C2300293ED1612341F2883202A9284659
:10467000029307F048F920B1012084F85C0011B0E2
:1046800030BD41F288320DF10601284607F0E1F90C
:104690000028F1D1BDF80630204623F0780343F01E
:1046A0004003ADF80630FFF78AFF0028E4D1C023AD
:1046B00041F2883202A92846029307F024F9002823
:1046C000DAD141F288320DF10601284607F061F98E
:1046D0000028D1D141F288312046FFF70CFF002895
:1046E000CDD0C9E7F023ADF80630E0E72DE9F04181
:1046F000002396B001264FF480724FF08078044674
:104700008DF807300E920896CDF844800D93CDE9D0
:104710000F33CDE91263CDE91433FFF750FF28B111
:10472000012084F85C0016B0BDE8F08104F11005AA
:1047300041F2883208A9284607F0E5F80028EFD1B1
:10474000402741F288320DF1070128468DF80770A5
:1047500007F01FF90028E3D110234FF4800102AACB
:10476000CDF8448004930523CDE90560CDE9071316
:10477000284641F2883308A9CDE9027707F0CDF940
:104780000028CDD141F288312046FFF7B4FE002841
:10479000C9D0C5E7F8B504460D46FFF704FFD8B900
:1047A0002B46224605F108061868083353F8041C06
:1047B0001546B34203C52A46F6D1186804F110071E
:1047C000286038469B88AB80257B667B07F08AF89B
:1047D00020B1012384F85C30012533E0012D4FF036
:1047E000010219490CBF4FF400034FF4801393FAF0
:1047F000A3F3B3FA83F3013B23624FF48073C4E95C
:104800000620C4E90B00C4E904123846636207F0CD
:104810001DF80028DDD12046FFF795FE0028D8D1ED
:1048200029462046FFF707FF0028D2D12046FFF790
:104830005DFF05460028CCD126B92046FFF72FFEA4
:104840000028C6D12846F8BD0050005238B5437B39
:1048500004468B4202D10025284638BD41730146EB
:10486000FFF798FF05460028F5D000232146204693
:104870006373022384F85C30FFF78CFFECE72DE9CB
:10488000F0418EB00446884615461F469DF850609C
:10489000FFF789FE58BB01212046FFF7D7FF30BB49
:1048A0004FF48073B5F5807F089006934FF00203B4
:1048B00028BF4FF48075059000934FF48063CDF8C6
:1048C000048007934FF4005303934FF08073CDE9B6
:1048D0000A50CDE90C0020460993FFF770FE50B155
:1048E00000212046FFF7B2FF012384F85C3001204D
:1048F0000EB0BDE8F08104F1100541F2883269463E
:10490000284607F000F80028EAD141F288323946FB
:10491000284607F03EF80028E2D141F288312046CF
:10492000FFF7E9FD0028DBD1002EE1D0014620464B
:10493000FFF78CFFDCE72DE9F74F11F0FF06074684
:10494000994621F070445FFA82F82AD1FF2A13D9E0
:1049500022F0FF05A3EB040B04EB050A54450BEB17
:10496000040314D1B8F1000F0AD00023424600938B
:1049700009EB050321462CE000962146FFF77FFF57
:104980000021384603B0BDE8F04FFFF75FBF214676
:104990004FF480723846009604F58074FFF76FFF7D
:1049A000DCE7FF2AC6F5807B4FF0000A16D8C34526
:1049B00011D2A8F580785A462146CDF800A0B0441F
:1049C000FFF75DFF09EB0B0304EB0B014246CDF84B
:1049D00000A03846D2E7CDF800A0CEE7A2F580755A
:1049E00021465A465C443544CB44CDF800A0EEB293
:1049F00025F0FF05ABEB0409FFF741FF04EB0508C9
:104A0000444509EB040307D1002EB9D000233246F8
:104A100000930BEB0503ADE721464FF48072384657
:104A2000CDF800A004F58074FFF729FFE8E730B562
:104A30004FF480738FB0012504460693D72301916C
:104A400000934FF4806307934FF4005303930023C4
:104A5000CDE908330593CDE90A53CDE90C33FFF7CF
:104A6000A2FD78B929462046FFF7F0FE50B920464E
:104A7000FFF7A5FD48B100212046FFF7E7FE01231F
:104A800084F85C3001200FB030BD41F288326946B5
:104A900004F1100006F037FF0028ECD141F2883114
:104AA0002046FFF728FD01460028E4D12046FFF705
:104AB000CDFEE8E7F8B521F47F640646174624F0FA
:104AC0000F04BC4201D300250DE024F070413046B4
:104AD000FFF7ADFF054640B100213046FFF7B6FEB7
:104AE000012386F85C302846F8BD04F58054E8E7D9
:104AF000183108B550F82100FFF71EFC08BD183129
:104B000050F82100FFF710BC024B03601846FFF776
:104B100041BE00BFA80D00240068FFF70CBF00686D
:104B2000FFF7C8BF21F0704000F11040704700004F
:104B30002DE9F0478CB004461422002100AF07F1A4
:104B40001C000EF09EFE22683A4B9A426ED13A4B00
:104B500000246E464FF00209D3F8D420A04642F458
:104B60008042C3F8D420D3F8D42002F480423A60C3
:104B70003A68D3F8E02042F04002C3F8E020D3F8CE
:104B8000E02002F040027A607A68D3F8E02042F038
:104B90002002C3F8E020D3F8E02002F02002BA603F
:104BA000BA68D3F8E02042F01002C3F8E020D3F84E
:104BB000E02002F01002FA60FA68D3F8E02042F038
:104BC0000202C3F8E020D3F8E03003F002033B61B7
:104BD0003B691A4B7B6140F609233B8307F11403C1
:104BE0009A4621461648FFF78AFF21460546144893
:104BF000FFF77EFF52460323013407F11C01C7F87B
:104C00002480BB6212F8013BC7E907092846924697
:104C1000FB6204F007FC062CE3D100225C20114665
:104C200003F03CFB5C2003F06BFBB5463037BD4620
:104C3000BDE8F08700500052004402580A0A0909F2
:104C4000A80D0024026838B5104B9A421CD1104AB6
:104C50000024D2F8D43023F48043C2F8D430214663
:104C60000C48FFF74CFF054621460A480134FFF780
:104C70003FFF0146284604F0BDFC062CEFD15C2026
:104C8000BDE8384003F04ABB38BD00BF00500052B9
:104C900000440258A80D0024014806F0F7BF00BFE9
:104CA000B80D0024074B9A1C1B665A661A1D9A669B
:104CB0009A1DDA6603F108021A6703F10A025A67BD
:104CC000704700BFA80D0024D1F800C0BCF1010F4F
:104CD0002DE9F043044685B00F464FF0000800F37D
:104CE0008A800E46C0F850820546C0E992880FCEF1
:104CF0000FC50FCE0FC5424B009303F580630193A0
:104D0000A3F57873029303F58063039304AB03EB7D
:104D10008C0C96E803005CF8103C85E80300A36265
:104D20005CF8083CC4F8C0303B69042B09D8DFE8C4
:104D300003F0033F424548004FF4FA53A364C4F81C
:104D4000E030BB693A6A002B3DD1003A18BF01221E
:104D5000C4E90B23FB697A6A002B3BD1003A18BFE8
:104D6000012204F12800C4E931237B69022B9FBF93
:104D7000244A12F80380244A12F803900023424682
:104D8000636449466363E365C4F8DC30C4F8CC303F
:104D9000C4F8F430C4E90F33C4E91533C4E935333A
:104DA000C4E93B33022309F03FF8D0B1FFBEFEE770
:104DB0004FF47A53C2E74FF4FA43BFE74BF6803320
:104DC000BCE7124BBAE7002A4FF0010314BF0322DD
:104DD0000222BDE7002A4FF0010314BF0322022282
:104DE000BFE702234246494604F1C00009F01CF81F
:104DF00010B1FFBEFEE7012005B0BDE8F08300BFA3
:104E00000458014013680108106801080077010088
:104E1000026838B561BB036A00F1280500F5AC747F
:104E2000013B18BF01239B01EAB91D4AC0F8582174
:104E300057224FF480514FF48070C4E901230023BE
:104E40004FF48062C4E903324FF480426362C4E9E4
:104E500005124FF40032C4E90702204603F0D8FCE3
:104E6000D0B1FFBEFEE70F4AC0F858215922E0E753
:104E7000436A00F1C00500F5E874013B18BF012347
:104E80009B0122B9084AC0F8D0215822D1E7074A2D
:104E9000C0F8D0215A22CCE7C5E92044A56338BD2B
:104EA00010000240580002402800024070000240FA
:104EB00010B4D0F854420B4664B1D0E99312D0F844
:104EC000480201EB830100EB8300234652085DF8A2
:104ED000044B18475DF8044B70472DE9F8439CB22A
:104EE000C0F850328369904607468946012B00F18D
:104EF000280500F1C006C0E99212089AC0F85422B1
:104F00001BD1036A2246012B0DD1284609F08EF8E9
:104F10007B6A2246012B0BD14946304609F086F8C0
:104F20000020BDE8F8834146284609F013F8EFE772
:104F30004146304609F00EF8F2E7436A2246012B5B
:104F400009D1304609F072F83B6A2246012B07D19D
:104F500049462846E2E74146304608F0FBFFF3E7C2
:104F600041462846E6E700000269042A9DBF044B3B
:104F700003EB820393ED000A9FED020A704700BF26
:104F8000FC67010800803B472DE9F043831D8BB08F
:104F900004460593031D069300F10803079300F1EF
:104FA0000A03089300F10C030993836963B3C5698D
:104FB000B5FA85F56D09012302220DF114080027C9
:104FC0004FF006090393CDE9012358F8046B2279C9
:104FD00033789A4204D161797278914200D16DB1EF
:104FE00022689AB1012A14D03046FFF7A5F9009043
:104FF0003046FFF799F9694604F014FA0137052F96
:10500000E3D10BB0BDE8F0830125D4E7CDF81090D3
:10501000EAE733B97378022B0CBF08230A23049301
:10502000E2E70A23FBE7000070B5036888B0434E4F
:105030000546B34202D0424A934231D1414C4248E4
:10504000D4F8E03043F01003C4F8E030D4F8E03096
:1050500003F010030093009BD4F8F03043F4800376
:10506000C4F8F030D4F8F03003F480030193019BCE
:10507000FFF78AFFD4F8D830296843F0010332489B
:10508000891BC4F8D830D4F8D83018BF012103F0F8
:1050900001030293029B08B0BDE87040FFF7B8BE61
:1050A0002A4EB34202D02A4A934245D1254C294880
:1050B000D4F8E03043F00103C4F8E030D4F8E03035
:1050C00003F001030393039BD4F8E03043F008039B
:1050D000C4F8E030D4F8E03003F008030493049BF4
:1050E000D4F8E03043F04003C4F8E030D4F8E030C6
:1050F00003F040030593059BD4F8F03043F400031C
:10510000C4F8F030D4F8F03003F400030693069BA3
:10511000FFF73AFFD4F8D830296843F001030D486F
:10512000891BC4F8D830D4F8D83018BF012103F057
:1051300001030793079BAEE708B070BD0458014018
:105140002458014000440258200E0024045C014011
:10515000245C01407C100024014803F08DBF00BF97
:10516000780F0024014803F087BF00BFF00F002430
:10517000014803F081BF00BFD4110024014803F0AF
:105180007BBF00BF4C12002403680D4A934202D03B
:105190002032934206D10B4B00211846C3F8581217
:1051A000FFF786BE084A934202D02032934206D1CE
:1051B0000448002100F51770C0F85812F0E7704756
:1051C00004580140200E0024045C014003680F4A8B
:1051D000934202D02032934207D10D48D0F85012AA
:1051E0004908C0F85812FFF763BE0A4A934202D03A
:1051F0002032934208D10648D0F8AC1400F517705D
:105200004908C0F85812EEE7704700BF0458014043
:10521000200E0024045C014010B402464FF41774C1
:105220000868044B04FB00305DF8044B1060FFF786
:105230004BBD00BF200E00240068704713B5049CCE
:1052400000940068FFF749FE002002B010BD00681E
:10525000FFF78ABE0368D3F8580270472DE9F04F74
:105260003B4C89B0A06303781BB1002009B0BDE8B6
:10527000F08F20204021374A4FF0020A06934FF06A
:105280000408E3624FF4805701254FF00309C4E995
:1052900005014FF4C07104EB0800CDF81490C4E987
:1052A0000123C4E9071307234FF400610822CDE965
:1052B00001A30A23C4E909170DEB08010793C4E908
:1052C0000352CDE9038208F065FF064600283CD171
:1052D0004FF0100B3A460DEB08010090049004EBE0
:1052E00008000195CDE902B508F07CFF642002F0CA
:1052F000C9F83A460DEB080104EB0800CDE901AB13
:10530000CDE9035608F06EFF3A460DEB080104EBB9
:105310000800CDE9019BCDE9038608F063FF40F268
:1053200032230DEB08013A46009304EB0800009B82
:1053300003950493CDE9018B08F054FF40F6060174
:1053400004EB080008F06DFF8FE728468EE700BFEA
:10535000DC120024404100522DE9F04300238FB0BD
:105360000B93624B1E68002E40F0BD800122022785
:1053700003250C241A6009A95D4B5E48D3F8D4209C
:10538000DFF8889142F48052C3F8D420D3F8D420B7
:1053900002F480520192019AD3F8E02042F0100208
:1053A000C3F8E020D3F8E02002F010020292029A43
:1053B000D3F8E02042F04002C3F8E020D3F8E02028
:1053C00002F040020392039AD3F8E02042F0080270
:1053D000C3F8E020D3F8E02002F008020492049A17
:1053E000D3F8E02042F48072C3F8E020D3F8E02044
:1053F00002F480720592059AD3F8E02042F0800210
:10540000C3F8E020D3F8E02002F080020692069A6A
:10541000D3F8E02042F02002C3F8E020D3F8E020E7
:1054200002F020020792079AD3F8E02042F004022B
:10543000C3F8E020D3F8E03003F004030893089B9E
:105440004FF68373CDE90C54CDE9093703F0EAFF39
:1054500048F2371309A928480D94CDE90937CDE959
:105460000B6503F0DFFF4CF2037309A923480D9489
:10547000CDE90937CDE90B6503F0D4FF40F2FF63B6
:1054800009A91F480D94CDE90937CDE90B6503F053
:10549000C9FF4FF60C7309A91A480D94CDE90937D5
:1054A000CDE90B6503F0BEFF4FF63F0309A916488F
:1054B0000D94CDE90937CDE90B6503F0B3FFD9F8B9
:1054C00038000130FEF730FF8046D9F8380001304F
:1054D000FEF732FF09A90D94CDE909074046CDE951
:1054E0000B6503F09FFF0FB0BDE8F083D8120024D6
:1054F000004402580010025800180258000C0258CC
:1055000000200258001C025800140258DC1200242B
:10551000B7EE007A10B4C7EE007A044610460022B7
:1055200021701946227300226073A260C4ED017AD3
:105530005DF8044B0DF0ECBD10B50446407B0DF05A
:1055400087FE237B22785B005BB26AB1C2B2B2FAFB
:1055500082F252091343DBB2A3F17F022373012AC3
:1055600004D80023A36010BD42B2F3E7FF2B01BFB4
:10557000D4ED027A94ED017A77EE877AC4ED027A5F
:10558000F1E700001FB502F0EFFE4FF04052124B62
:1055900001246846ADF80040CDE901234FF4807343
:1055A000039302F0FFFE002340F2011268468DF8DB
:1055B00001408DF80D308DF80A301923ADF80E201A
:1055C0008DF808304FF04043019302F0EBFE0420C9
:1055D00002F0D8FE04B010BD0E000103014800F037
:1055E0004DB800BF1813002401F04CBF08B507F0F8
:1055F000CFF8400008BD00F17843B3F5003F23D356
:10560000B0F5803F22D300F16043B3F5003F1FD3D4
:1056100000F15C43B3F5002F1CD300F17043B3F5E8
:10562000902F19D300F14843B3F5803F16D300F112
:105630008043B3F1806F13D300F1E040B0F5000F69
:1056400034BF0720082070470020704701207047B2
:1056500002207047032070470420704705207047E0
:1056600006207047014B9868FFF7C5BF00ED00E0CA
:10567000014B00221A6070471813002403689B68CE
:10568000586A7047028BC08A101A7047C28A034654
:10569000018B914283BF0169885C01324FF0FF307A
:1056A00088BFDA827047028BC38A9A4286BF02693A
:1056B000D05C4FF0FF307047806DD0F8DC302BB1FC
:1056C0000023D43020F8B23CC36818477047836881
:1056D00010B5044613B1032201469847204610BD79
:1056E00070B54FF47A730E46002115462C4A0446D5
:1056F000C0E90113034643F8C42B9C22C0F8C41030
:10570000C3E90111C0E93411C0E93611C0F8E01055
:1057100028300EF0B6F8F3B2202B19D8214A06F43F
:10572000E06652F823301E43EBB2C4F88460202BAD
:1057300022D81C4A05F4E06552F823301D430023AB
:105740002046C4F88850E36123842361A38270BD9E
:1057500006F0C002C02A0CD1CB2B0AD806F03F02BB
:10576000114B06F4E06653F822200E4B53F822301A
:10577000D9E74FF0FF36D7E705F0C002C02A0CD1B9
:10578000CB2B0AD805F03F02074B05F4E06553F830
:105790002220044B53F82230D0E74FF0FF35CEE7FC
:1057A00020680108447701081477010838B50446D9
:1057B000283000F065FBE06918B10DF03BFF0023D5
:1057C000E36100252069258410B10DF033FF2561C8
:1057D000A58238BD38B5084B0546044645F8D43B8C
:1057E000FFF7E4FF2846FFF772FF04F1C400FFF75C
:1057F0006EFF204638BD00BF2068010838B500F1B3
:1058000028050446284600F0B3FB94F8BE304BB997
:105810002846054900F098FC28460449BDE8384070
:1058200000F08BBC38BD00BFB956000875580008A1
:105830000123994080F82430002381764384704707
:105840000123994080F824300023817643847047F7
:1058500038B5838A05460C468B4209D22029006957
:1058600038BF202421460DF09BFF10B12861AC8287
:1058700038BDFEE773B5846D0546866ED4F8CC302E
:10588000E3B1E28A238B9A4218D331462046FFF7D0
:10589000DFFF324605F1740120690EF03FF8002366
:1058A0002683E382D4F8CC3001960BB910F01EFBAE
:1058B000D4F8D03001A904F1C400984702B070BDFB
:1058C000B1F5806F70B505460C4610D8038C99422F
:1058D0000AD920290E46C06938BF202631460DF06E
:1058E0005FFF18B1E8612E84204670BDFEE70024FA
:1058F000FAE713B590F8243004468DF807107BB111
:10590000418C0131FFF7DCFF40B1638C01209DF831
:105910000710E269D154638C0133638402B010BD77
:1059200001220DF10701283000F036FBB0FA80F0BB
:105930004009F3E770B590F8243004460E4615464A
:1059400093B1418C1144FFF7BBFF10B900252846E5
:1059500070BD638C2A46E069314618440DF0DEFFC5
:10596000638C2B446384F2E792B2283000F014FB7E
:105970000028EBD1EBE70346006918B19A8A0021B1
:105980000DF07FBF70470346C06918B11A8C002123
:105990000DF077BF704738B50446C9B9AA23A3658F
:1059A00094F8BE30012B16D1638C04F12800E26913
:1059B000A17E00F071FB042828BF0420C5B2204658
:1059C000FFF7E1FF0023638484F82430284638BDC4
:1059D0004FF42A43E3E70425F8E72DE9F04790F870
:1059E000BEA004460F461546BAF1010F98469DF831
:1059F00020609DF8249039D17F001146FFF728FFE1
:105A0000FFB286B1032E4FF0000384F824A028BF14
:105A10000326A7766384013EF6B2FF2E1AD1002139
:105A20002046FFF7B8FFB9F1000F1CD1AA23A365E8
:105A300039462B46226904F128002E4600F0C6FAAA
:105A400000239842E3821CBF1D462E46284626832B
:105A5000BDE8F087F1002368204628FA01F11B68B1
:105A6000C9B29847D7E74FF42A43E0E70020EFE7B1
:105A700007B5019300230093FFF7AFFF03B05DF874
:105A800004FB0123D2B2C9B2FFF7F2BF0121FFF735
:105A900082BF38B500250446C5820583FFF76BFF3A
:105AA00020466584FFF76FFF38BD00002DE9F04107
:105AB0000446D0F884000DF069FA00210DF028FBAF
:105AC000D4F88430C3F303120A2A44D8264D03F0D5
:105AD0000F03264F55F8222057F8233012699343BD
